:100000000C9462000C948A000C948A000C948A0070
:100010000C948A000C948A000C948A000C948A0038
:100020000C948A000C948A000C948A000C948A0028
:100030000C948A000C948A000C948A000C948A0018
:100040000C9471060C948A000C943F060C941906CB
:100050000C948A000C948A000C948A000C948A00F8
:100060000C948A000C948A000000000024002700F1
:100070002A0000000000250028002B0000000000DE
:1000800023002600290004040404040404040202DA
:100090000202020203030303030301020408102007
:1000A0004080010204081020010204081020000012
:1000B0000008000201000003040700000000000027
:1000C0000000BB0611241FBECFEFD8E0DEBFCDBFBE
:1000D00012E0A0E0B1E0EEE0FEE102C005900D927A
:1000E000A838B107D9F723E0A8E8B2E001C01D9213
:1000F000AE34B207E1F710E0C2E6D0E004C02197C9
:10010000FE010E94EA0CC136D107C9F70E9406071A
:100110000C94050F0C940000DC01ED91FC91019012
:10012000F081E02D0994CF92DF92EF92FF920F932E
:100130001F93CF93DF936C017A018B01C0E0D0E075
:10014000CE15DF0589F0D8016D918D01D601ED91B5
:10015000FC910190F081E02DC6010995892B11F4E5
:100160007E0102C02196ECCFC701DF91CF911F9194
:100170000F91FF90EF90DF90CF900895FC01538D89
:10018000448D252F30E0842F90E0821B930B541771
:1001900010F0CF96089501970895FC01918D828DFE
:1001A000981761F0828DDF01A80FB11D5D968C91CB
:1001B000928D9F5F9F73928F90E008958FEF9FEFD6
:1001C0000895FC01918D828D981731F0828DE80F92
:1001D000F11D858D90E008958FEF9FEF0895FC014C
:1001E000918D228D892F90E0805C9F4F821B910919
:1001F0008F739927089585E992E00E94EF0021E02E
:10020000892B09F420E0822F0895FC01848DDF0101
:10021000A80FB11DA35ABF4F2C91848D90E0019679
:100220008F739927848FA689B7892C93A089B18968
:100230008C9180648C93938D848D981306C0028872
:10024000F389E02D80818F7D80830895EF92FF9266
:100250000F931F93CF93DF93EC0181E0888F9B8DE9
:100260008C8D981305C0E889F989808185FD24C0AB
:10027000F62E0B8D10E00F5F1F4F0F731127E02E2E
:100280008C8DE8120CC00FB607FCFACFE889F9890B
:10029000808185FFF5CFCE010E940501F1CF8B8DC6
:1002A000FE01E80FF11DE35AFF4FF0820B8FEA8940
:1002B000FB898081806207C0EE89FF896083E889BD
:1002C000F98980818064808381E090E0DF91CF9123
:1002D0001F910F91FF90EF900895CF93DF93EC0162
:1002E000888D8823C9F0EA89FB89808185FD05C056
:1002F000A889B9898C9186FD0FC00FB607FCF5CF90
:10030000808185FFF2CFA889B9898C9185FFEDCFD7
:10031000CE010E940501E7CFDF91CF91089580E0E3
:1003200090E0892B29F00E94FB0081110C940000C1
:100330000895833081F028F4813099F08230A1F063
:1003400008958730A9F08830B9F08430D1F48091D5
:1003500080008F7D03C0809180008F778093800024
:10036000089584B58F7702C084B58F7D84BD0895CC
:100370008091B0008F7703C08091B0008F7D809313
:10038000B0000895CF93DF93282F30E0F901E255B4
:10039000FF4F8491F901E656FF4FD491F901EA57D6
:1003A000FF4FC491CC2391F081110E949901EC2F51
:1003B000F0E0EE0FFF1FE458FF4FA591B491EC91D0
:1003C000ED2381E090E021F480E002C080E090E045
:1003D000DF91CF9108951F93CF93DF93282F30E0C3
:1003E000F901E255FF4F8491F901E656FF4FD49190
:1003F000F901EA57FF4FC491CC23C9F0162F8111A0
:100400000E949901EC2FF0E0EE0FFF1FEE58FF4F16
:10041000A591B4918FB7F894111105C09C91ED2F5F
:10042000E095E92302C0EC91ED2BEC938FBFDF91B7
:10043000CF911F910895CF93DF9390E0FC01E65692
:10044000FF4F2491FC01EA57FF4F8491882361F10B
:1004500090E0880F991FFC01E859FF4FC591D49196
:10046000FC01EE58FF4FA591B491611109C09FB7EF
:10047000F8948881209582238883EC912E230BC0E9
:10048000623061F49FB7F8943881822F809583237E
:100490008883EC912E2B2C939FBF06C08FB7F894C6
:1004A000E8812E2B28838FBFDF91CF9108958E3066
:1004B00008F08E508770806480937C0080917A0071
:1004C000806480937A0080917A0086FDFCCF8091D1
:1004D00078002091790090E0922B08953FB7F8942E
:1004E0008091890290918A02A0918B02B0918C0236
:1004F00026B5A89B05C02F3F19F00196A11DB11D7F
:100500003FBFBA2FA92F982F8827820F911DA11DB9
:10051000B11DBC01CD0142E0660F771F881F991FF6
:100520004A95D1F708958F929F92AF92BF92CF9242
:10053000DF92EF92FF926B017C010E946E024B01F1
:100540005C01C114D104E104F104F1F00E946E02D7
:10055000DC01CB0188199909AA09BB09883E93409F
:10056000A105B10570F321E0C21AD108E108F10834
:1005700088EE880E83E0981EA11CB11CC114D10422
:10058000E104F10419F7DDCFFF90EF90DF90CF90F9
:10059000BF90AF909F908F900895CF93DF93EC0121
:1005A00060E08E810E94EB0161E08E810E94EB0190
:1005B00060E08E810E94EB018BE891E00197F1F7FA
:1005C000DF91CF910895CF92DF92EF92FF920F9338
:1005D0001F93CF93DF937C016C0187E0C80ED11C81
:1005E000C0E0D0E0062F10E0B8010C2E02C07595D7
:1005F00067950A94E2F76170F60181916F010E949C
:10060000EB012196C430D10579F7C701DF91CF9175
:100610001F910F91FF90EF90DF90CF900C94CD023F
:10062000CF92DF92EF92FF920F931F93CF93DF93BE
:10063000EC01F62E642F8C810E94EB018D818F3F9F
:1006400019F060E00E94EB018F850F2D10E084FF10
:1006500025C06E0187E0C80ED11CE12CF12CB80139
:100660000E2C02C0759567950A94E2F76170F60149
:1006700081916F010E94EB01FFEFEF1AFF0A88E002
:10068000E816F10461F7CE01DF91CF911F910F9130
:10069000FF90EF90DF90CF900C94CD02B80184E0F2
:1006A000759567958A95E1F7CE010E94E3026F2D5B
:1006B000CE01DF91CF911F910F91FF90EF90DF90CE
:1006C000CF900C94E30241E00E94100381E090E09F
:1006D000089540E00C941003843008F083E090917A
:1006E0004503891710F08FEF890FE82FF0E0EE5CDB
:1006F000FC4F6489606882E393E00C94690361E0D5
:100700000E9469038BE39FE10197F1F70895EF924F
:10071000FF920F931F93CF93DF93EC01623018F099
:100720008F8588608F876B8B1C8A80E48D8B80E13E
:100730008E8B80E58F8B61E08C810E941B028D8106
:100740008F3F19F061E00E941B0261E08E810E94E0
:100750001B027E0187E0E80EF11C00E010E08F85AF
:1007600084FD03C084E090E002C088E090E00817B8
:1007700019074CF461E0F70181917F010E941B028F
:100780000F5F1F4FECCF8BE39DE00197F1F760E027
:100790008C810E94EB0160E08E810E94EB018D81D3
:1007A0008F3F19F060E00E94EB016F8564FD1DC072
:1007B00063E0CE010E94E3020BE416E4C801019756
:1007C000F1F763E0CE010E94E302C8010197F1F75F
:1007D00063E0CE010E94E30283E592E00197F1F726
:1007E00062E0CE010E94E30216C06062CE010E9468
:1007F00069038BE496E40197F1F76F856062CE019F
:100800000E94690383E592E00197F1F76F856062CA
:10081000CE010E9469036F856062CE010E94690368
:1008200084E0888B6CE0CE010E946903CE010E94B7
:100830007F0382E0898B66E0CE01DF91CF911F912B
:100840000F91FF90EF900C946903089580E090E081
:1008500008950E94E70E6115710579F0FB01019082
:100860000020E9F73197AF01461B570BDC01ED91F2
:10087000FC910280F381E02D099480E090E00895DE
:100880004F925F926F927F92EF92FF920F931F931E
:10089000CF93DF93CDB7DEB7A1970FB6F894DEBF45
:1008A0000FBECDBF7C01FA01CB0119A2223008F4A2
:1008B0002AE08E010F5D1F4F422E512C612C712CAE
:1008C000BF01A30192010E949A0BF901CA010150D4
:1008D00011096A3014F4605D01C0695CD8016C9341
:1008E000232B242B252B61F7B801C7010E942B0471
:1008F000A1960FB6F894DEBF0FBECDBFDF91CF91AA
:100900001F910F91FF90EF907F906F905F904F90AD
:100910000895CF92DF92EF92FF920F931F93CF93A0
:10092000DF936B01770FEE08FF08F7FE1BC0EC01A9
:100930006DE20E948C008C0144275527BA014C19A6
:100940005D096E097F092AE0CE010E944004800FF4
:10095000911FDF91CF911F910F91FF90EF90DF904A
:10096000CF9008952AE0B701A601DF91CF911F91A2
:100970000F91FF90EF90DF90CF900C9440044F9236
:100980005F926F927F928F929F92AF92BF92CF921F
:10099000DF92EF92FF92CF93DF93EC016A017B012C
:1009A000B22E9A01AB01C701B6010E94DE0C88236A
:1009B00019F064E271E027C026013701E89477F866
:1009C0002FEF3FEF4FE75FE7C301B2010E94DE0C5C
:1009D00081110DC02FEF3FEF4FE75FE7C301B20179
:1009E0000E94200A18161CF468E271E00CC02FEF78
:1009F0003FEF4FE75FE4C701B6010E94D90C18161C
:100A00009CF46CE271E0CE01DF91CF91FF90EF900A
:100A1000DF90CF90BF90AF909F908F907F906F901E
:100A20005F904F900C942B042FEF3FEF4FE75FEC5C
:100A3000C701B6010E94200A87FDE3CF20E030E025
:100A4000A901C701B6010E94200A87FF0AC06DE212
:100A5000CE010E948C004C01F7FAF094F7F8F09464
:100A600002C0812C912CA12C60E070E080E09FE31B
:100A7000AB1440F420E030E040E251E40E94380C36
:100A8000A394F6CF9B01AC01C701B6010E94CC0B29
:100A90002B013C010E94AA0C6B017C010E94250ADB
:100AA0009B01AC01C301B2010E94CB0B2B013C01A5
:100AB0002AE0B701A601CE010E9440047C01E80CA7
:100AC000F91CBB2031F06EE2CE010E948C00E80ED2
:100AD000F91EDB2CDD2029F120E030E040E251E47A
:100AE000C301B2010E94860A2B013C010E94AA0C9C
:100AF0004B01A12CB12C2AE0B501A401CE010E942A
:100B00004004E80EF91EC501B4010E94250A9B01AC
:100B1000AC01C301B2010E94CB0B2B013C01DA9462
:100B2000D9CFC701DF91CF91FF90EF90DF90CF90A9
:100B3000BF90AF909F908F907F906F905F904F90FD
:100B400008950C942B04EF92FF920F931F93CF9371
:100B5000DF93EC017B018A0188819981009729F05C
:100B60002A813B8124173507F8F4B8016F5F7F4F66
:100B70000E941D0E009759F0998388831B830A8376
:100B80002C813D81232B81F4FC0110820DC08881D2
:100B90009981009711F00E94850D198218821D829B
:100BA0001C821B821A8207C01D830C83B7018881B7
:100BB00099810E94FE0ECE01DF91CF911F910F917E
:100BC000FF90EF900895CF93DF93EC0161157105CD
:100BD00059F0FB0101900020E9F73197AF01461B66
:100BE000570B0E94A3050CC088819981009711F0D2
:100BF0000E94850D198218821D821C821B821A8216
:100C0000CE01DF91CF910895FC01118210821382F1
:100C10001282158214826115710551F0FB01019059
:100C20000020E9F73197AF01461B570B0C94A30541
:100C300008951F920F920FB60F9211242F933F9396
:100C40004F935F936F937F938F939F93AF93BF93D4
:100C5000EF93FF9385E992E00E940501FF91EF91E8
:100C6000BF91AF919F918F917F916F915F914F91C4
:100C70003F912F910F900FBE0F901F9018951F92CC
:100C80000F920FB60F9211242F938F939F93EF9390
:100C9000FF93E091A502F091A6028081E091AB0262
:100CA000F091AC0282FD12C090818091AE028F5F04
:100CB0008F732091AF02821751F0E091AE02F0E005
:100CC000EB56FD4F958F8093AE0201C08081FF915E
:100CD000EF919F918F912F910F900FBE0F901F90CA
:100CE00018951F920F920FB60F9211242F933F93D6
:100CF0008F939F93AF93BF9380918D0290918E02BB
:100D0000A0918F02B09190023091880223E0230FCE
:100D10002D3720F40196A11DB11D05C026E8230F33
:100D20000296A11DB11D2093880280938D0290939D
:100D30008E02A0938F02B0939002809189029091CD
:100D40008A02A0918B02B0918C020196A11DB11D67
:100D50008093890290938A02A0938B02B0938C02B5
:100D6000BF91AF919F918F913F912F910F900FBEA7
:100D70000F901F901895E5E9F2E01382128288EE39
:100D800093E0A0E0B0E084839583A683B7838AE0F4
:100D900091E09183808385EC90E09587848784EC53
:100DA00090E09787868780EC90E0918B808B81EC38
:100DB00090E0938B828B82EC90E0958B848B86EC19
:100DC00090E0978B868B118E128E138E148EE2E339
:100DD000F3E0138212828CE191E0918380838CE0B6
:100DE00084838FEF85838BE0868384E0878385E02F
:100DF000808786E0818787E0828713861486158640
:100E00001686178661E0CF010C948703CF93DF939A
:100E1000CDB7DEB762970FB6F894DEBF0FBECDBF79
:100E2000789484B5826084BD84B5816084BD85B5C5
:100E3000826085BD85B5816085BD80916E008160D1
:100E400080936E0010928100809181008260809377
:100E50008100809181008160809381008091800079
:100E60008160809380008091B10084608093B100A4
:100E70008091B00081608093B00080917A0084609E
:100E800080937A0080917A00826080937A008091CA
:100E90007A00816080937A0080917A0080688093E4
:100EA0007A001092C100E091A502F091A60282E0C2
:100EB0008083E091A102F091A2021082E091A3024E
:100EC000F091A4028FEC80831092AD02E091A90210
:100ED000F091AA0286E08083E091A702F091A80237
:100EE000808180618083E091A702F091A8028081D7
:100EF00088608083E091A702F091A80280818068D9
:100F00008083E091A702F091A80280818F7D808389
:100F100062E082E393E00E94870382E393E00E9411
:100F20007F0380E00E946C036BE371E082E393E057
:100F30000E94A10581E00E946C036CE471E082E3F1
:100F400093E00E94A10561E082E00E941B0261E043
:100F500083E00E941B0261E08AE00E941B0261E0C4
:100F60008DE00E941B0262E088E00E941B0262E0AA
:100F700089E00E941B0261E082E00E94EB0161E0D7
:100F800083E00E94EB0161E08AE00E94EB0168EEE1
:100F900073E080E090E00E94930260E082E00E94B3
:100FA000EB0160E083E00E94EB0160E08AE00E94D8
:100FB000EB0182E393E00E947F0344244A9423E000
:100FC000522E612C712C8EE00E9457028C018FE012
:100FD0000E9457027C0180E10E9457024C0124E6E6
:100FE00030E0D8010E94E30CA30192010E94440B5F
:100FF00057FD07C08901253631052CF004E610E0C5
:1010000002C000E010E028EE33E0D7010E94E30CBC
:10101000A30192010E94440BCA01B9010E94270A50
:1010200020E030E048EC52E40E94380CF62EE72E27
:10103000D82EC92E20E030E0A9010E94200A87FDA9
:1010400013C020E030E040E751E46F2D7E2D8D2D60
:101050009C2D0E94D90C18165CF4F12CE12C80E731
:10106000D82E91E4C92E04C0F12CE12CD12CC12C36
:1010700088E00E94C201BB24B394892B09F0B12CF3
:1010800089E00E94C201AA24A394892B09F0A12C13
:101090006DE571E0CE010D960E94040664E671E0F4
:1010A000CE0107960E940406BB20B1F069E671E00C
:1010B000CE010D960E94E3056EE771E0CE01079622
:1010C0000E94E30560E082E00E94EB0160E083E0C3
:1010D0000E94EB0161E012C006351105A4F06FE932
:1010E00071E0CE010D960E94E30560E082E00E946F
:1010F000EB0161E083E00E94EB0160E08AE00E9486
:10110000EB0161E026C00D33110584F068E971E060
:10111000CE010D960E94E30561E082E00E94EB01A2
:1011200060E083E00E94EB0161E00FC06DE571E0DB
:10113000CE010D960E94E30561E082E00E94EB0182
:1011400060E083E00E94EB0160E08AE00E94EB0136
:1011500060E08DE00E94EB0180E00E946C0364EA95
:1011600071E082E393E00E94A10568EA71E082E306
:1011700093E00E94A10560EB71E082E393E00E949E
:10118000A1050A30110534F465EF71E082E393E0C4
:101190000E94A105B80182E393E00E94890465EBF7
:1011A00071E082E393E00E94A10581E00E946C035C
:1011B000BB2019F068EB71E037C0AA2019F06AEC87
:1011C00071E032C06BED71E082E393E00E94A10513
:1011D00021E030E04F2D5E2D6D2D7C2D82E393E0DC
:1011E0000E94BF046EED71E082E393E00E94A105CE
:1011F00089899A89892BB1F02D843E846FE971E049
:10120000C1010E94F50E892B19F465EE71E00CC046
:1012100068E971E0C1010E94F50E892B19F46BEEAB
:1012200071E002C061EF71E082E393E00E94A105EA
:101230002FB7F89480918D0290918E02A0918F0229
:10124000B09190022FBF4091910250919202609113
:10125000930270919402841B950BA60BB70B883BED
:101260009B40A105B10528F4A11003C0BB2009F4DF
:10127000B9C02FB7F89480918D0290918E02A09101
:101280008F02B09190022FBF8093910290939202AF
:10129000A0939302B09394026DE672E085E992E028
:1012A0000E94A10568EA71E085E992E00E94A1052B
:1012B00068E772E085E992E00E94A105AA2009F49E
:1012C000BDC060E070E085E992E00E94890467EFAC
:1012D00071E085E992E00E94A105AA2021F0F12C9D
:1012E000E12CD12CC12C22E030E04F2D5E2D6D2D54
:1012F0007C2D85E992E00E94BF0464E072E085E9FC
:1013000092E00E94A10526EB33E0D4010E94E30C99
:10131000A30192010E94440BCA01B9016E5C7F4F88
:101320008F4F9F4F85E992E00E9489046FE072E041
:1013300085E992E00E94A105B11065C065E371E006
:1013400085E992E00E94A1056FE172E085E992E0F3
:101350000E94A105BB2009F459C01A8219821C827F
:101360001B821E821D826F8178856115710531F0A7
:101370004B855C85CE0101960E94A3054D815E815F
:1013800069817A8185E992E00E94930089819A813E
:101390000E94850D65E372E085E992E00E94A10557
:1013A000AA20D9F162E472E085E992E00E94A105E9
:1013B0006BE572E085E992E00E94A105BB2081F116
:1013C00069E671E085E992E00E94A10567E672E0B6
:1013D00085E992E00E942B046AE672E085E992E0DA
:1013E0000E942B0468EC70E080E090E00E94930281
:1013F0008F8198850E94850D8D859E850E94850D23
:101400000E948F01E0CD60E371E09ACF60E372E06B
:10141000CE0101960E940406B1CF66E572E0C4CF0A
:10142000AA2019F06DE571E0CDCF49895A896D8503
:101430007E8585E992E00E949300C8CFB80143CF32
:101440000E94620A08F481E00895E89409C097FBBD
:101450003EF490958095709561957F4F8F4F9F4F8B
:101460009923A9F0F92F96E9BB279395F6958795CF
:1014700077956795B795F111F8CFFAF4BB0F11F492
:1014800060FF1BC06F5F7F4F8F4F9F4F16C0882339
:1014900011F096E911C0772321F09EE8872F762F6F
:1014A00005C0662371F096E8862F70E060E02AF0B0
:1014B0009A95660F771F881FDAF7880F969587959C
:1014C00097F90895990F0008550FAA0BE0E8FEEF71
:1014D00016161706E807F907C0F012161306E407F8
:1014E000F50798F0621B730B840B950B39F40A26F1
:1014F00061F0232B242B252B21F408950A2609F4CF
:10150000A140A6958FEF811D811D08950E94990A23
:101510000C940A0B0E94FC0A38F00E94030B20F086
:10152000952311F00C94F30A0C94F90A11240C94ED
:101530003E0B0E941B0B70F3959FC1F3950F50E07B
:10154000551F629FF001729FBB27F00DB11D639F75
:10155000AA27F00DB11DAA1F649F6627B00DA11D1B
:10156000661F829F2227B00DA11D621F739FB00DC1
:10157000A11D621F839FA00D611D221F749F332731
:10158000A00D611D231F849F600D211D822F762FCA
:101590006A2F11249F5750409AF0F1F088234AF0A7
:1015A000EE0FFF1FBB1F661F771F881F9150504013
:1015B000A9F79E3F510580F00C94F30A0C943E0B62
:1015C0005F3FE4F3983ED4F3869577956795B7959A
:1015D000F795E7959F5FC1F7FE2B880F911D9695B4
:1015E000879597F9089597F99F6780E870E060E024
:1015F00008959FEF80EC089500240A9416161706AC
:1016000018060906089500240A94121613061406F3
:1016100005060895092E0394000C11F4882352F056
:10162000BB0F40F4BF2B11F460FF04C06F5F7F4F0E
:101630008F4F9F4F089557FD9058440F551F59F0F5
:101640005F3F71F04795880F97FB991F61F09F3FAF
:1016500079F087950895121613061406551FF2CFD8
:101660004695F1DF08C0161617061806991FF1CF28
:1016700086957105610508940895E894BB2766274F
:101680007727CB0197F90895052E97FB1EF4009458
:101690000E945B0B57FD07D00E949A0B07FC03D0FA
:1016A0004EF40C945B0B50954095309521953F4F2F
:1016B0004F4F5F4F089590958095709561957F4F3E
:1016C0008F4F9F4F08952F923F924F925F926F924C
:1016D0007F928F929F92AF92BF92CF92DF92EF92C2
:1016E000FF920F931F93CF93DF93CDB7DEB7CA1B43
:1016F000DB0B0FB6F894DEBF0FBECDBF09942A886E
:10170000398848885F846E847D848C849B84AA8415
:10171000B984C884DF80EE80FD800C811B81AA81A2
:10172000B981CE0FD11D0FB6F894DEBF0FBECDBF6D
:10173000ED010895A1E21A2EAA1BBB1BFD010DC0ED
:10174000AA1FBB1FEE1FFF1FA217B307E407F50771
:1017500020F0A21BB30BE40BF50B661F771F881F4D
:10176000991F1A9469F760957095809590959B01E3
:10177000AC01BD01CF010895A29FB001B39FC0018C
:10178000A39F700D811D1124911DB29F700D811DAD
:101790001124911D08955058BB27AA270E94E30BDE
:1017A0000C940A0B0E94FC0A38F00E94030B20F0F4
:1017B00039F49F3F19F426F40C94F90A0EF4E095DD
:1017C000E7FB0C94F30AE92F0E941B0B58F3BA179E
:1017D000620773078407950720F079F4A6F50C9447
:1017E0003D0B0EF4E0950B2EBA2FA02D0B01B90185
:1017F00090010C01CA01A0011124FF27591B99F087
:10180000593F50F4503E68F11A16F040A22F232F92
:10181000342F4427585FF3CF469537952795A795E2
:10182000F0405395C9F77EF41F16BA0B620B730B89
:10183000840BBAF09150A1F0FF0FBB1F661F771FFA
:10184000881FC2F70EC0BA0F621F731F841F48F4AF
:10185000879577956795B795F7959E3F08F0B0CF38
:101860009395880F08F09927EE0F9795879508951F
:101870000E944C0C0C940A0B0E94030B58F00E941F
:10188000FC0A40F029F45F3F29F00C94F30A51114F
:101890000C943E0B0C94F90A0E941B0B68F39923DD
:1018A000B1F3552391F3951B550BBB27AA2762175C
:1018B0007307840738F09F5F5F4F220F331F441F69
:1018C000AA1FA9F335D00E2E3AF0E0E832D091509D
:1018D0005040E695001CCAF72BD0FE2F29D0660F8A
:1018E000771F881FBB1F261737074807AB07B0E8CD
:1018F00009F0BB0B802DBF01FF2793585F4F3AF0D3
:101900009E3F510578F00C94F30A0C943E0B5F3F18
:10191000E4F3983ED4F3869577956795B795F79558
:101920009F5FC9F7880F911D9695879597F9089540
:10193000E1E0660F771F881FBB1F621773078407DC
:10194000BA0720F0621B730B840BBA0BEE1F88F7EB
:10195000E09508950E94230B88F09F5798F0B92FC7
:101960009927B751B0F0E1F0660F771F881F991FD4
:101970001AF0BA95C9F714C0B13091F00E943D0B2E
:10198000B1E008950C943D0B672F782F8827B85F3E
:1019900039F0B93FCCF3869577956795B395D9F72C
:1019A0003EF490958095709561957F4F8F4F9F4F36
:1019B00008950E94620A08F48FEF08950E94620A57
:1019C000880B990B08950E94BC0BB7FF0895821BEA
:1019D000930B0895EE0FFF1F0590F491E02D0994ED
:1019E000CF93DF938230910510F482E090E0E09194
:1019F0004C03F0914D0320E030E0C0E0D0E03097A0
:101A000011F14081518148175907C0F04817590713
:101A100061F482819381209719F09B838A832BC084
:101A200090934D0380934C0326C02115310519F086
:101A30004217530718F49A01BE01DF01EF0102803B
:101A4000F381E02DDCCF2115310509F1281B390B7D
:101A50002430310590F412968D919C911397611565
:101A6000710521F0FB019383828304C090934D03A1
:101A700080934C03FD01329644C0FD01E20FF31F39
:101A800081939193225031092D933C933AC0209138
:101A90004A0330914B03232B41F4209102013091F2
:101AA000030130934B0320934A03209100013091AE
:101AB00001012115310541F42DB73EB740910401D4
:101AC00050910501241B350BE0914A03F0914B0323
:101AD000E217F307A0F42E1B3F0B2817390778F005
:101AE000AC014E5F5F4F2417350748F04E0F5F1F64
:101AF00050934B0340934A038193919302C0E0E0DB
:101B0000F0E0CF01DF91CF9108950F931F93CF9312
:101B1000DF93009709F48CC0FC0132971382128284
:101B200000914C0310914D030115110581F42081A2
:101B30003181820F931F20914A0330914B03281764
:101B4000390779F5F0934B03E0934A0371C0D8014C
:101B500040E050E0AE17BF0750F412962D913C9133
:101B60001397AD012115310509F1D901F3CF9D017D
:101B7000DA013383228360817181860F971F821778
:101B8000930769F4EC0128813981260F371F2E5FF6
:101B90003F4F318320838A819B8193838283452BAE
:101BA00029F4F0934D03E0934C0342C01396FC9349
:101BB000EE931297ED01499159919E01240F351F23
:101BC000E217F30771F480819181840F951F0296CB
:101BD00011969C938E938281938113969C938E93FE
:101BE0001297E0E0F0E0D80112968D919C91139746
:101BF000009719F0F8018C01F6CF8D919C91980116
:101C00002E5F3F4F820F931F20914A0330914B0369
:101C10002817390769F4309729F410924D03109270
:101C20004C0302C01382128210934B0300934A03A9
:101C3000DF91CF911F910F910895A0E0B0E0E3E212
:101C4000FEE00C94670BEC01009721F4CB010E949D
:101C5000F00CB8C0FC01E60FF71F9C0122503109BF
:101C6000E217F30708F4ACC0D9010D911C9111974C
:101C700006171707B0F00530110508F49FC0C8011A
:101C800004978617970708F499C002501109061B9C
:101C9000170B019311936D937C93CF010E94850DD7
:101CA0008DC05B01A01AB10A4C01800E911EA0915B
:101CB0004C03B0914D0340E050E0E12CF12C109723
:101CC00009F44AC0A815B905D1F56D907C9011971B
:101CD000630182E0C80ED11CCA14DB0480F1A301A9
:101CE0004A195B096A0182E0C80ED11C1296BC90A9
:101CF00012971396AC91B5E0CB16D10440F0B282A6
:101D0000A38351834083D9016D937C930AC00E5FF6
:101D10001F4FC301800F911FF90191838083EB2D29
:101D2000FA2FE114F10431F0D7011396FC93EE93EE
:101D3000129744C0F0934D03E0934C033FC08D9144
:101D40009C9111974817590708F4AC017D01129630
:101D50000D90BC91A02DB3CF80914A0390914B037D
:101D600088159905E1F446175707C8F480910001DA
:101D700090910101009741F48DB79EB74091040105
:101D800050910501841B950BE817F907C8F4F093EF
:101D90004B03E0934A03F901718360830FC0CB01C9
:101DA0000E94F00C7C01009759F0A801BE010E942E
:101DB000EC0ECE010E94850DC70104C0CE0102C009
:101DC00080E090E0CDB7DEB7EEE00C94830B81E0CD
:101DD00090E0F8940C94050FFB01DC0102C0019027
:101DE0000D9241505040D8F70895FB01DC018D91D0
:101DF000019080190110D9F3990B0895FB01DC01C2
:0E1E000001900D920020E1F70895F894FFCFB5
:101E0E0000004E0380000000000026019300BE007B
:101E1E006D01EF00CD00E1000000000063039300B0
:101E2E00260425046E616E00696E66006F7666008C
:101E3E00747275650066616C73650020204772656B
:101E4E00656E476F6C64204F53202000536D617296
:101E5E00742042696E20426F6F742E2E004E4F52C8
:101E6E004D414C004E6F6E65004D41494E54454EEE
:101E7E00414E43455F5245515549524544004C49E8
:101E8E00445F4A414D4D4544202F2053454E534FFC
:101E9E00525F4641554C5400414C4D4F53542046D1
:101EAE00554C4C0049443A0042494E2D30303100D9
:101EBE0020464C3A00252000214D41494E54454EB6
:101ECE00414E4345205245512100434152443A2050
:101EDE00434C4541522042494E2000573A006B6711
:101EEE002053743A0046554C4C20004E454152202A
:101EFE00004F4B202020002C227765696768744BB9
:101F0E0067223A002C2267617350706D223A002CC2
:101F1E00226D61696E74656E616E6365223A002C86
:101F2E00226661756C74526561736F6E223A22007F
:101F3E004E4F4E4500222C22726669645461672210
:101F4E003A0022434F4C4C4543544F522D4341527D
:101F5E00442D373722006E756C6C002C2273746121
:101F6E00747573223A2200227D000D0A007B2262D4
:101F7E00696E4964223A2200222C2266696C6C4CEE
:081F8E006576656C223A000043
:107E0000112484B714BE81FFF0D085E080938100F7
:107E100082E08093C00088E18093C10086E0809377
:107E2000C20080E18093C4008EE0C9D0259A86E02C
:107E300020E33CEF91E0309385002093840096BBD3
:107E4000B09BFECF1D9AA8958150A9F7CC24DD24C4
:107E500088248394B5E0AB2EA1E19A2EF3E0BF2EE7
:107E6000A2D0813461F49FD0082FAFD0023811F036
:107E7000013811F484E001C083E08DD089C08234E0
:107E800011F484E103C0853419F485E0A6D080C0E4
:107E9000853579F488D0E82EFF2485D0082F10E0AE
:107EA000102F00270E291F29000F111F8ED06801E7
:107EB0006FC0863521F484E090D080E0DECF843638
:107EC00009F040C070D06FD0082F6DD080E0C81688
:107ED00080E7D80618F4F601B7BEE895C0E0D1E017
:107EE00062D089930C17E1F7F0E0CF16F0E7DF06D8
:107EF00018F0F601B7BEE89568D007B600FCFDCFD4
:107F0000A601A0E0B1E02C9130E011968C91119780
:107F100090E0982F8827822B932B1296FA010C0160
:107F200087BEE89511244E5F5F4FF1E0A038BF0790
:107F300051F7F601A7BEE89507B600FCFDCF97BE46
:107F4000E89526C08437B1F42ED02DD0F82E2BD052
:107F50003CD0F601EF2C8F010F5F1F4F84911BD097
:107F6000EA94F801C1F70894C11CD11CFA94CF0C13
:107F7000D11C0EC0853739F428D08EE10CD085E9AC
:107F80000AD08FE07ACF813511F488E018D01DD067
:107F900080E101D065CF982F8091C00085FFFCCF94
:107FA0009093C60008958091C00087FFFCCF809118
:107FB000C00084FD01C0A8958091C6000895E0E648
:107FC000F0E098E1908380830895EDDF803219F02E
:107FD00088E0F5DFFFCF84E1DECF1F93182FE3DFCA
:107FE0001150E9F7F2DF1F91089580E0E8DFEE27F6
:047FF000FF270994CA
:027FFE00040479
:0400000300007E007B
:00000001FF
